:020000040800F2
:10000000A8080020A1010008056700088154000825
:10001000116200082D1A0008FD750008000000009C
:10002000000000000000000000000000556E000805
:10003000311A0008000000005D6C0008576E0008CF
:10004000BB010008BB010008BB010008BB010008A0
:10005000BB010008BB010008BB010008BB01000890
:10006000BB010008BB010008BB010008BB01000880
:10007000BB010008BB010008BB010008BB01000870
:10008000BB010008BB010008BB010008BB01000860
:10009000BB010008BB010008BB010008BB01000850
:1000A000BB010008BB010008BB010008BB01000840
:1000B000BB010008BB010008BB010008BB01000830
:1000C000BB010008BB010008BB010008BB01000820
:1000D000BB010008BB010008DD750008ED750008D4
:1000E000BB010008BB010008BB010008BB01000800
:1000F000BB010008BB010008BB010008BB010008F0
:10010000BB010008BB010008BB010008BB010008DF
:10011000B9700008BB010008BB010008BB01000862
:10012000BB010008BB010008BB010008BB010008BF
:10013000BB010008BB010008BB010008BB010008AF
:10014000BB010008BB010008BB010008BB0100089F
:10015000BB010008BB010008BB010008BB0100088F
:10016000BB010008BB010008BB010008BB0100087F
:10017000BB010008BB010008BB0100080000000033
:10018000BB010008BB010008DFF810D000F070FAD6
:10019000004800470D830008AFF30080A808002046
:1001A0000648804706480047FEE7FEE7FEE7FEE711
:1001B000FEE7FEE7FEE7FEE7FEE7FEE7156F000855
:1001C000890100082DE9F05F0546002092469B4614
:1001D00088460646814640241BE02846414647465D
:1001E000224600F07DF853465A46C01A914110D37A
:1001F00011461846224600F064F82D1A67EB0108F4
:100200004F4622460120002100F05BF817EB000961
:100210004E41201EA4F10104DFDC484631462A4647
:100220004346BDE8F09F40EA01039B0703D009E085
:1002300008C9121F08C0042AFAD203E011F8013BD2
:1002400000F8013B521EF9D27047D2B201E000F82B
:10025000012B491EFBD270470022F6E710B513466A
:100260000A4604461946FFF7F0FF204610BD421C1F
:1002700010F8011B0029FBD1801A704730B50446E5
:100280000020034600E05B1C934203D2E05CCD5C9F
:10029000401BF8D030BD30B50B460146002020226F
:1002A000012409E021FA02F59D4205D303FA02F583
:1002B000491B04FA02F52844151EA2F10102F1DCE3
:1002C00030BD202A04DB203A00FA02F100207047FA
:1002D0009140C2F1200320FA03F319439040704784
:1002E000202A04DB203A21FA02F00021704721FA8B
:1002F00002F3D040C2F120029140084319467047F2
:100300002DE9FE4F804681EA0300C00F0C460090A5
:1003100021F0004123F00045B8EB0200A94105D2CD
:100320004046214690461C460B46024623F00040BC
:10033000104347D0270DC7F30A00C3F30A510290B8
:10034000401A019040286BDAC3F3130040F4801B7D
:100350000098924620B10023D2EB030A63EB0B0B0B
:1003600001985946C0F140025046FFF7AAFF0646E1
:100370000D4650465946019A00F08CF910EB0800E2
:100380006141002487EA115284EAE7731A4340D09E
:10039000009A62B3019A012A4FEA075215DC001B4A
:1003A00061EB02014FF0004202EA0752CDE9004240
:1003B000001C41F5801132462B4600F08CF903B049
:1003C000BDE8F08F40462146F9E7001B61EB0201D2
:1003D000001C41F5801300185B412018A2F500179E
:1003E00047EB030140EAD570B6196D4111E06D0885
:1003F0004FEA360645EAC0754FEA0752001B61EB2B
:100400000201001C41F5801149084FEA3000001933
:10041000514132462B4603B0BDE8F04F00F04CB9D5
:100420000098012240000023D0EB020263EBE0734E
:10043000009821464FEAE074B8EB000061EB04013C
:10044000E9E783F000435BE781F0004158E72DE9DD
:10045000FE4F81EA030404F0004421F000410094BF
:100460004FF0000B23F0004350EA01045ED052EA43
:1004700003045BD0C3F30A54C1F30A552C44A4F21D
:10048000F3340194A0FB0254C1F3130141F4801131
:10049000C3F3130343F4801301FB024400FB034E38
:1004A000840A970A44EA815447EA8357A4FB076801
:1004B00002958D0A05FB07854FEA932C04FB0C542B
:1004C0002705029D4FEA065847EA1637B5EB08059F
:1004D0006EEB070C870E920E47EA811742EA8312F1
:1004E000A7FB0201B6EB0B0164EB00042B0D43EA02
:1004F0000C335E1844EB1C50DA465146E7FB020110
:10050000C5F313044FEA0B3343EA14534FEA0432A2
:10051000019C43EA0603A4F10C040294009CCDE97B
:1005200000B400F0D8F803B0BDE8F08F0020014619
:10053000F9E72DE9F04D81EA030404F0004B21F0C6
:10054000004514464FF0000A23F0004150EA05022E
:1005500020D054EA01021DD0C5F30A570246C5F364
:100560001303C1F31300C1F30A5640F4801543F49A
:100570008013A7EB0608101BD64608F2FD3873EB74
:10058000050002D308F1010801E092185B41B8F1BF
:10059000000F03DA00200146BDE8F08D00204FF483
:1005A0008011064684460EE0171B73EB050705D342
:1005B000121B63EB050306434CEA010C49084FEAA2
:1005C000300092185B4150EA0107EDD152EA030076
:1005D00012D082EA040083EA0501084305D0101B0B
:1005E000AB4106D20122002306E000224FF0004377
:1005F00002E06FF0010253101AEB06004CEB0851B9
:1006000010EB0A0041EB0B01BDE8F04D00F054B8CF
:10061000C1F30A52C1F3130140F2FF3341F48011D8
:100620009A4202DA00200146704740F233439A4270
:10063000A2F2334202DC5242FFF752BEFFF741BE44
:1006400030B5041E71F1000404DB4FF00044404259
:1006500064EB0101141E73F1000405DB1C464FF02E
:100660000043524263EB0403994208BF904230BDFD
:10067000064C074D06E0E06840F0010394E80700EF
:1006800098471034AC42F6D3FFF782FDF08500089E
:1006900010860008202A06DBCB17203A41FA02F028
:1006A00043EAE07306E041FA02F3D040C2F12002CF
:1006B000914008431946704710B5141E73F10004A9
:1006C00008DA401C41F1000192185B411A4301D144
:1006D00020F0010010BD2DE9F04D92469B4611B16E
:1006E000B1FA81F202E0B0FA80F220329046FFF7D0
:1006F000E8FD04460F4640EA0A0041EA0B01534672
:100700005A46084313D0114653EA010019D0C8F1E4
:1007100040025046FFF7E4FD05460E465046594656
:100720004246FFF7CEFD084305D0012004E02046F5
:100730003946BDE8F08D0020054346EAE0762C43BB
:1007400037430A986305E40AA0EB08000022FD0A7B
:1007500044EA47540A3002D500200146E9E7010582
:1007600010196941DDE9084500196941BDE8F04DFE
:10077000A2E7000055494A6822F440324A604A68BC
:1007800043681A434A600268526822F48072036820
:100790005A6002685368026943EA022203685A6099
:1007A0000268526822F0407203685A600268526818
:1007B00083681A4303685A600268926822F40062F0
:1007C00003689A6002689268C3681A4303689A6073
:1007D0003F4B826A9A4218D00268926822F0706297
:1007E00003689A6002689268836A1A4303689A6091
:1007F0000268926822F0405203689A600268926828
:10080000C36A1A4303689A600BE00268926822F098
:10081000706203689A600268926822F0405203682E
:100820009A600268926822F0020203689A60026885
:100830009368027E43EA420203689A602022125CB7
:10084000A2B10268526842F4006203685A6002680A
:10085000526822F4604203685A6002685368426A30
:10086000521E43EA423203685A6005E00268526849
:1008700022F4006203685A600268D26A22F47002AD
:100880000368DA620268D36A828B521E43EA02521C
:100890000368DA620268926822F4007203689A6060
:1008A0000268936890F8302043EA422203689A6015
:1008B0000268926822F4806203689A600268936812
:1008C000426943EA822203689A607047002301402C
:1008D0000100000F0EB56A4601A902A801F082FCD2
:1008E00008B900200EBD9DF80800142806D39DF815
:1008F0000800322802D8BDF8040008B90020F1E74A
:100900000F48007A9DF8081088420DD10C484089A4
:10091000BDF80410884207D109488089BDF800104D
:10092000884201D10120DDE70023BDF80020BDF899
:1009300004109DF8080000F0AFFA0120D2E7000093
:10094000C000002070B5054605B970BD2748047881
:100950002748007808BB2748007803281DD0264880
:10096000007A2249C978884208D02048C0782249B4
:1009700008720846017A21A001F090FD1E484089C6
:100980001A490989884208D0184800891A494881BB
:10099000084641891AA001F081FD2878A04200D1C3
:1009A000D3E7032C05D112480078E0B100F08AF9B2
:1009B00019E0012C01D0022C0CD10E48007803283C
:1009C00002D100F09BF90EE00948007858B900F018
:1009D0006FFB08E03CB90648007810B9054800787C
:1009E00008B100F0E7FB00BFAFE70000D200002035
:1009F0000800002009000020C00000206E30000028
:100A00006E31000010B500F03DF802F0EDF9034939
:100A10000860034800F0FCFC10BD0000240000202A
:100A2000D200002010B504460CB9012010BDE078BA
:100A30001149087220894881208988810F480078EF
:100A400060B10846007848B90C48007808700B4837
:100A500002780B490848401CFFF7E5FB074800787F
:100A600008B90020E2E70021034801F0A0FA08B924
:100A70000120DBE70020D9E7C000002007000020AC
:100A80000000002008B50120354948703548007A3B
:100A9000C8703548007818B934480078032808D160
:100AA000334800683B303C21B0FBF1F02C49088111
:100AB00003E02C4840892A49088105F0F1FF2849C4
:100AC000087105F0A3FF2649C8802A48007808B1BC
:100AD000012000E000202249C87205F08FFD08B90E
:100AE000012000E000201E490875224800780873A4
:100AF00001F10D0000210160818081711D480278A3
:100B00001D4917480D30FFF78EFB002014498872ED
:100B1000684606F07FFA012806D10022BDF90010D0
:100B20000F4800F013FD07E0012200210C4800F0FF
:100B30000DFD00200A4988720948807A78B90A4870
:100B4000007840B104F028FB022800D100E0012029
:100B50000349087003E0054800780149087008BDA2
:100B6000D2000020C0000020080000200900002062
:100B700014000020070000200000002010B501F044
:100B800034F80020034908600349086003490860FD
:100B900010BD0000180000201C00002020000020D4
:100BA00010B50B48007808B1012010BD0948007845
:100BB00008B90020F9E70748007805490870084699
:100BC00002780449491C0448FFF72DFB0120ECE79B
:100BD00007000020C00000200000002010B51148D0
:100BE000007800B910BD00200E49087004200E499D
:100BF000087000200D4908600D4908600D49086023
:100C000004F03EFB05F0A4FF0421012006F008FDDE
:100C100000F082F9084800F0FDF9FFF7F3FE00BF8D
:100C2000E0E7000008000020090000200C00002080
:100C30001000002014000020C000002010B500F0BB
:100C4000F5FA04460CB1204610BD02F0CDF84FF481
:100C50007A71B0FBF1F0401CF6E7FEB507460C4692
:100C600015461E460CB105B10EB90020FEBD694601
:100C7000384601F053F808B90020F7E700982060E3
:100C800001982860BDF8080030800120EEE710B51B
:100C900001F090F810BD70B504460D4616460CB133
:100CA00005B106B970BD002332462946204600F042
:100CB000BFFF20B932462946204601F09DF800BF0B
:100CC000F0E7000010B50B48007800B910BD002017
:100CD0000849087003200849087004F0D1FA04217B
:100CE000012006F09DFC00F055F9FFF78BFE00BFD8
:100CF000ECE70000080000200900002010B51948AA
:100D00000078032800D010BD1748006830B9174894
:100D10004089C0EB0010800013490860012014498D
:100D200008701049087000201249086002F05CF851
:100D3000114908600D49087A04F076FA0A480068FB
:100D40003B303C21B0FBF1F421460CA001F0A6FBA6
:100D50000321012006F064FC00F038F9FFF752FE91
:100D600000BFD0E70900002014000020C0000020D0
:100D7000080000200C000020100000206E31000050
:100D8000F8B53848007800B9F8BD02F02DF80446EF
:100D900035480068201AB0F5FA7F00D2F4E73248EF
:100DA0000460684606F036F901280ED1BDF900103E
:100DB0002EA001F073FB05F073FE05462A460121C3
:100DC000BDF9000004F0C0FA0CE040F2E73127A0C2
:100DD00001F064FB05F064FE05462A460021084642
:100DE00004F0B2FA22480068D0B322480068201A02
:100DF000B0F57A7F34D31F480068201A4FF47A7117
:100E0000B0FBF1F505EB4500C0EBC51019490968C9
:100E100001EBC0001749086015480068854203D3FC
:100E200000201349086004E011480068401B104985
:100E300008600F4800683B303C21B0FBF1F63146BA
:100E40000DA001F02BFB05F0E7FD064631460BA097
:100E500001F024FB0648006808B9FFF7BFFE00BF99
:100E600000BF91E7080000200C000020783000004F
:100E700014000020100000206E3100006E320000CF
:100E800070B504460D4616460123324629462046D3
:100E900000F002F870BD00002DE9F04104460D4657
:100EA00016461F46FFF77CFE08B9BDE8F0811448DE
:100EB0000078144908701248027813491148401C00
:100EC000FFF7B1F90F48047245818681002101F0D6
:100ED0006EF80C48017A0DA001F0E0FA094841894A
:100EE0000BA001F0DBFA074881890AA001F0D6FACD
:100EF0001FB10121084606F093FB00BFD5E70000B3
:100F000007000020C0000020000000206E3000001C
:100F10006E3100006E3200003EB51B48006830B9EB
:100F20001A48006818B91A48006800B93EBDFFF7B2
:100F300085FE0446164805681448006838B1134811
:100F40000068844203D311480068201A05440E4803
:100F5000006808B90C4804600B48006800900194D0
:100F600005F13B003C21B0FBF1F080B2ADF8080088
:100F7000684600F05EFD00200349086003490860F0
:100F80000349086000BFD1E7180000201C000020C2
:100F90002000002010B50B49096801B910BDFFF70A
:100FA0004DFE08490968884207D306490968411A75
:100FB000054A12681144044A11600021014A116077
:100FC00000BFEBE71C0000202000002010B5064801
:100FD000006818B9FFF732FE03490860FFF72EFEDC
:100FE0000249086010BD0000180000201C0000200D
:100FF00010B5FFF723FE044603480460034804606D
:1010000000200349086010BD180000201C000020CB
:101010002000002010B5044604B910BD0BA001F05B
:101020001DFA1E2001F0C4FD2178601C00F018F8A4
:10103000217A08A001F032FA618907A001F02EFAA6
:10104000A18906A001F02AFA00BFE6E77061676592
:10105000203000006E3000006E3100006E32000063
:101060002DE9F04105460E46002705B12EB90021B5
:1010700009A001F013FABDE8F081002404E0285D26
:1010800080EA0717601CC4B2B442F8DB394602A0FC
:1010900001F004FA00BFEEE76E33000010B5FFF771
:1010A0007FFD00B910BD00F003F800BFFAE70000B3
:1010B00008B5FFF70FFC2748408930B926A001F09A
:1010C00009FA2448FFF7A6FF08BD30A001F0C6F9D1
:1010D0001E2001F06DFD1F4841892EA001F0DEF9B0
:1010E0001C4881892CA001F0D9F9684605F092FFCF
:1010F000012805D1BDF9001028A001F0CFF904E0C6
:1011000040F2E73125A001F0C9F90321012006F0E2
:1011100087FA0120224908702249087000202249DC
:10112000086001F061FE214908600A484089C0EB6F
:10113000001080001E4908600649087A04F074F81F
:101140000449888905F0D8FCFFF752FFFFF75AFCE5
:1011500000BFB9E7C000002053746172742072654B
:101160006A65637465643A20776F726B5F74696D4A
:101170006520697320302E205365742074696D6575
:101180002066697273742E0D0A0000007061676535
:10119000203100006E3100006E3200007830000017
:1011A00008000020090000200C0000201000002092
:1011B0001400002010B51748007818B916480078B8
:1011C00000B910BD1348007818B9134800780328F7
:1011D00001D1012000E00020044600200D490870E4
:1011E0000D4908700D4908600D4908600D490860F7
:1011F00004F046F805F0ACFC1CB10421012006F017
:101200000FFAFFF789FE0848FFF704FFFFF7FAFB24
:1012100000BFD6E708000020090000200C000020D5
:101220001000002014000020C000002010B506F0BF
:1012300027FF10BD10B50446204600F007FA10BD88
:1012400010B500F03BFA10BD2DE9F04399B0064609
:101250000D46144616B919B0BDE8F083CBE0002066
:1012600007909DF820000A2806D00B2827D00C28CC
:1012700037D00D287DD18FE09DF82100042815D1AD
:101280009DF82200010608A8C07841EA004108A89C
:10129000007941EA002008A9497940EA01075A4843
:1012A000076001F0A1FD5949086001E001200790A5
:1012B0009DF820009DF81C1000F084FA9AE024B1FB
:1012C000606810B16068804701E000F073FD8046FF
:1012D0009DF82000002100F075FA404600F0B2FAB7
:1012E00088E09DF8210001284DD19DF822904CB353
:1012F000A06838B304AB05AA06A94846D4F808C0CC
:10130000E047B0B1606810B16068804701E000F06C
:1013100051FD80469DF82000002100F053FABDF8F1
:101320001000009041464846DDE9053200F057FACA
:1013300031E0012007909DF820009DF81C1000F07E
:1013400041FA28E001A9484600F0E8FC90B100F01D
:1013500031FD80469DF82000002100F033FABDF8F1
:101360000C00009041464846DDE9012300F037FAC1
:1013700011E01FE0012007909DF820009DF81C104F
:1013800000F020FA07E0012007909DF820009DF86A
:101390001C1000F017FA2DE024B1E06810B1E068ED
:1013A000804701E000F021FC9DF82000002100F0C2
:1013B00009FA1FE007AA08A9304600F032F89DF8A4
:1013C0001C0068B965B19DF82000012803D09DF884
:1013D0002000032804D13046A84708B10520079013
:1013E0009DF820009DF81C1000F0ECF9304606F046
:1013F0005FFE00BF00BF08A800F012F900287FF4CC
:101400002EAF00BF27E70000B4000020B800002086
:1014100010B5044604B910BD204606F049FE00BFD1
:10142000F9E72DE9F04105460E4614460DB106B127
:101430000CB9BDE8F08100202070307808285FD218
:10144000DFE800F05E045E1A3448545D70780128CD
:1014500005D1B078142802D3B078322802D90120FF
:10146000207008E0284606F081FE10B903202070A5
:1014700001E0B078E87046E07078022802D00120E0
:10148000207012E0284606F071FE10B9032020708B
:101490000BE0F078B17840EA012700BFB7F5803F54
:1014A00002D30120207000E02F812CE0A87A10B137
:1014B000042020700DE0287828B12878032802D075
:1014C0002878042803D1284600F032F801E00320F0
:1014D000207018E02878012802D02878022802D14C
:1014E0000320287001E0022020700CE0287810B959
:1014F0000220207002E0284600F022F803E002E01B
:101500000420207000BF00BF00BF92E710B5044662
:1015100004B910BD1E212046FEF79EFE002020705B
:10152000012060702D20E0701E20208100BFF0E7B8
:1015300008B1817A01B170470121017000BFFAE75B
:1015400000B970470021017000BFFAE72DE9F041B2
:1015500004460D4617460CB9BDE8F08127B10221BB
:10156000204606F00DFEF7E7002D01DC00260AE01C
:1015700040F6F610854201DBFF2604E0681D0A21D3
:1015800090FBF1F0C6B2A670A078462804D30521DE
:10159000204606F0F5FDDFE7A078412804D30421BA
:1015A000204606F0EDFDD7E7207840B120780328EB
:1015B00005D02078042802D02078052800D1CBE778
:1015C000A078401CC0B2E178884202DA0120207085
:1015D00001E00220207000BFBEE7000030B5039C90
:1015E00010B10A4D2D78057011B1094D2D780D708F
:1015F00012B1084D2D78157013B1074D2D781D705F
:1016000014B1064D2D78257030BD0000AA000020D1
:10161000AB000020AC000020AD000020AE00002098
:1016200010B5044614B10748007808B9002010BD71
:10163000422205492046FEF7F6FD002001490870C8
:101640000120F4E7A9000020E003002010B50446C3
:101650000E48046000200E4908700E4908700E49BB
:1016600008700E4908700E4908700E4908700E493E
:1016700008700E4908700E4908800E490880422102
:101680000D48FEF7E9FD06F029FE10BDA40000207C
:10169000A8000020A9000020AA000020AB00002024
:1016A000AC000020AD000020AE000020AF00002004
:1016B000B0000020B2000020E003002008B5384848
:1016C000006810B13748007800B108BD5FE03648C7
:1016D0000078401C344908709DF8000033490870B8
:1016E0003348007820B99DF80000AA2800D04EE0C9
:1016F0002F480078012807D19DF80000552803D015
:1017000000202B49087042E02948007840280AD27E
:101710009DF80010264802780078401C244B187071
:101720002448815403E00020214908702FE020481C
:101730000078032807D31F488078022803D20020AE
:101740001B49087023E01A48007803281ED3194863
:101750008078C01CC0B216490978884216D1164A52
:1017600013480178134800F024F958B901200D49B5
:10177000087012480078401C104908700E48007824
:101780000F49087000200A49087005E000BF68464C
:1017900006F042FD00289AD100BF00BF95E7000087
:1017A000A4000020A9000020AA000020AB00002017
:1017B000A8000020A0030020E0030020AC000020CF
:1017C000AD00002038B504460D468DF800408DF878
:1017D000015002226946812006F05EFD38BD2DE9E8
:1017E000FE4306460F4614461D46DDF828808DF858
:1017F00000608DF80170200E8DF80200200C8DF82D
:101800000300200A8DF80400E0B28DF80500280ED0
:101810008DF80600280C8DF80700280A8DF80800BE
:10182000E8B28DF809004FEA18208DF80A0008F098
:10183000FF008DF80B000C226946932006F02CFD6A
:10184000BDE8FE8301B501226946922006F024FD21
:1018500008BD10B58AB0044614B901200AB010BD05
:1018600028216846FEF7F8FC20788DF800006078A3
:101870008DF80100A0788DF80200E0788DF8030063
:1018800020798DF80400207A8DF805006089001217
:101890008DF80600A07A8DF80700207B8DF80800EF
:1018A000607B8DF80900A07B8DF80A00E07B8DF845
:1018B0000B0020690390A08AADF81000A07D8DF880
:1018C0001200E07D8DF81300207E8DF81400607EFC
:1018D0008DF81500A07E8DF81600E07E8DF81700BB
:1018E000207F8DF8180094F820008DF81900208CC6
:1018F000000A8DF81A00206A000C8DF81B00206A7F
:10190000000E8DF81C0094F824008DF81D0094F84A
:1019100025008DF81E0094F826008DF81F0094F81D
:1019200027008DF8200094F829008DF8210094F804
:101930002A008DF8220094F82B008DF8230094F8EB
:101940002C008DF8240094F82D008DF82500262217
:101950006946902006F0A0FC80E72DE9F047074695
:10196000884615461C46DDF820900CB1402D02D962
:101970000020BDE8F087681DC6B2B14501DA00203D
:10198000F7E7AA20207055206070A81CA070E770AF
:10199000B8F1000F05D025B12A464146201DFEF7BB
:1019A00042FC291D204606F029FC291D60543046C2
:1019B000DFE72DE9F04104460D46164614B10EB19D
:1019C000052D02D20120BDE8F0812078AA2802D19D
:1019D0006078552801D00120F5E7A078022801D2CF
:1019E0000120F0E7A078C01CA84201D00120EAE75E
:1019F000A078801EC7B2402F01D90120E3E7681EFE
:101A000081B2204606F0FAFB8046681E205C404505
:101A100001D00120D7E7E0783070777027B13A46DF
:101A2000211DB01CFEF7FFFB0020CCE700BFFEE746
:101A3000704730B587B004460020069005900CB979
:101A400007B030BD05A906A800F030FA10B9002093
:101A50000690059001A9204600F0DBFA9DF81800D9
:101A600000F056F90546102201A900F035FB08B137
:101A70000020E5E79DF81800401C0321B0FBF1F2BF
:101A800001FB120006909DF81400032804D29DF873
:101A90001400401CC0B205909DF814109DF8180069
:101AA00000F036FB0120CBE770B505460C4605B1CA
:101AB00004B970BD12212046FEF7CEFB28782070B5
:101AC000D5F80100C4F80100B5F80500A4F8050038
:101AD000E879E071287A2072687A00026081608972
:101AE000A97A08436081E87A0002A081A089297B55
:101AF0000843A081687BA073A97BE173E97B217413
:101B000000BFD6E700B101B97047027812064378EA
:101B100042EA0342837842EA0322C3781A430A6006
:101B200002791206437942EA0342837942EA0322A8
:101B3000C3791A434A60427A037A42EA03220A814D
:101B400000BFE1E710B50146002209B9002010BD31
:101B50000C780CB1072C01D90020F8E70878424036
:101B6000002304E0581C085C4240581CC3B2A34246
:101B7000F8DB087A4240487A4240887A4240C87A84
:101B80004240087B42401046E1E70146002209B985
:101B90000020704708784240002304E0481CC05CE5
:101BA0004240581CC3B20878984201DD072BF5D398
:101BB000087A4240488982EA1022887A424088891D
:101BC00082EA1022087B42401046E2E702460023E8
:101BD0000AB900207047002103E0505C4340481CD4
:101BE000C1B20A29F9D31846F4E710B50021084616
:101BF00000F08EFA10BD7FB50025002413E02046CA
:101C000000F081F806461022694600F011F900B193
:101C100007E0684600F081F9012801D1681CC5B2CF
:101C200000BF601CC4B2142CE9D3284604B070BDB8
:101C30002DE9F04104460E4615461F4604B115B97C
:101C40000020BDE8F0813B462A463146204600F0A0
:101C500021F8F6E77FB5054615B9002004B070BD40
:101C6000002413E0204600F04EF806461022694694
:101C700000F0DEF800B107E0684600F04EF910B958
:101C80002C700120EAE700BF601CC4B2142CE9D319
:101C90000020E3E72DE9F04389B005468846164663
:101CA0001F461DB9002009B0BDE8F083002426E0DE
:101CB000204600F028F88146102205A900F0B8F867
:101CC00000B11AE005A800F028F900B915E069464E
:101CD00005A8FFF7E9FE42462946684600F0D9F913
:101CE000012809D126B1122269463046FEF79BFA37
:101CF00007B13C700120D6E700BF601CC4B2142CB1
:101D0000D6D30020CFE70146102000EB011070472A
:101D100001464FF4047000EB011070472DE9F041CB
:101D200086B004460D4600200590049015B906B013
:101D3000BDE8F08104A905A800F0B8F808B90020B2
:101D4000F5E79DF81000844201DB0020EFE79DF8E5
:101D50001000032801D2002001E09DF8140007467E
:101D600038190321B0FBF1F201FB12063046FFF7F0
:101D7000CFFF80461022694600F05AF808B10020D3
:101D8000D5E79DF80D00C32803D19DF80F003C282E
:101D900001D00020CBE76846FFF718FF9DF80E1032
:101DA000884201D00020C2E729466846FFF7AAFE14
:101DB0000120BCE71CB5002001900090694601A8F5
:101DC00000F074F808B900201CBD9DF80000FBE786
:101DD00008B500200090642000F072F900B108BD41
:101DE000684600F03BF828B9002000909DF80000FC
:101DF00000F03EF900BFF2E770B506460D46144606
:101E000006B104B970BD072D00D90725122120465F
:101E1000FEF722FA25702A463146601CFEF703FAC7
:101E20001420207200206081A08100BFEAE700003A
:101E3000FEB506460C46154604B10DB90120FEBD9F
:101E4000C82010233246A021CDE900450290024867
:101E500001F0D2FBF3E700008C01002038B5044606
:101E60000020009004B938BD032269460020FFF726
:101E7000DFFF08B10020F6E79DF802005A2801D0E4
:101E80000020F0E79DF800009DF801104840FF2871
:101E900001D00020E7E79DF80000142801D90020B8
:101EA000E1E79DF8000020700120DCE738B504462A
:101EB0000D460020009004B10DB9002038BD042269
:101EC0006946D001FFF7B4FF08B10020F6E79DF89E
:101ED00002003C2801D00020F0E79DF800009DF8AA
:101EE000011048409DF8021048409DF803108842B8
:101EF00001D00020E2E79DF80000032803D29DF8FE
:101F00000100032801D90020D8E79DF800002070C7
:101F10009DF8010028700120D0E710B504460CB9E7
:101F2000002010BD607BA52802D1E07B5A2801D09B
:101F30000020F6E7207810B12078072801D900208A
:101F4000EFE72046FFF7FEFDA17B884201D000208D
:101F5000E7E70120E5E770B505460C4605B104B991
:101F600070BD10212046FEF777F928782070D5F84B
:101F70000100C4F80100B5F80500A4F80500E879EF
:101F8000E071287A20726889000A6072A87AA072CB
:101F9000A889000AE072287B2073A5206073284678
:101FA000FFF7F3FDA0735A20E07300BFD8E7F0B548
:101FB0008BB004460D4600200A900CB90BB0F0BD62
:101FC00021780AAB01AA601CFFF764FE28B90AA8B1
:101FD000FFF740FE08B90020F0E706A92046FFF70A
:101FE000BAFF9DF82800FFF78EFE0746102206A9CB
:101FF00000F072F808B10020E0E7FFF7FCFD0646AC
:10200000304600F035F815B19DF828002870012001
:10201000D4E770B505460C4605B104B970BD102172
:102020002046FEF719F92868000E20702868000C79
:1020300060702888000AA0702878E0706868000E38
:1020400020716868000C6071A888000AA071287966
:10205000E0712889000A2072287A6072C3206073B8
:102060002046FFF7B3FDA0733C20E07300BFD5E727
:1020700038B504468DF8004084F0FF008DF801006B
:102080005A208DF8020003226946002000F024F84F
:1020900038BD70B504460D46164604B10DB9002092
:1020A00070BD2078B04201D00020F9E732462946C1
:1020B000601CFEF7E3F808B10020F1E70120EFE72C
:1020C00010B5044623460522A021024800F07AFFFD
:1020D00010BD00008C010020FEB507460C461546D9
:1020E00004B10DB90120FEBDC82010233A46A0213D
:1020F000CDE900450290054801F002FC06460EB10C
:102100003046F0E76420FFF7DBFFECE78C010020AE
:1021100038B504460D468DF800408DF801503C203E
:102120008DF802009DF800009DF8011048409DF8D0
:10213000021048408DF8030004226946D001FFF7E1
:10214000CBFF38BD72B600BFFEE7000010B580219E
:102150000448FEF781F8002003490880034908700D
:1021600010BD0000100300203E00002040000020B1
:1021700010B503460BB101B10AB9002010BD0948E2
:10218000007808B90020F9E7074800781870074878
:10219000008808800648008810800020014C2070CC
:1021A0000120EBE746000020470000204800002007
:1021B0004A0000200448007808B900207047002039
:1021C000014908700120F9E74C000020044800781C
:1021D00008B9002070470020014908700120F9E784
:1021E0004D00002003460BB101B10AB90020704731
:1021F0000A48007838B90A48008820B90948008898
:1022000008B90020F3E705480078187004480088F2
:1022100008800448008810800120E8E7470000207B
:10222000480000204A00002010B5FFF78FFF00F0A3
:10223000CBF806480068C06840F0200003490968F0
:10224000C86003A000F046F910BD0000380200206D
:1022500047554920484D49206C6179657220726567
:102260006164792E0D0A000010B504464A480078D2
:10227000062879D2DFE800F00309121A364DAA2C9D
:1022800002D101204449087083E0552C03D102207B
:102290004149087001E000F097F87AE03F48047087
:1022A0003F48047003203C49087072E03D480470C8
:1022B0003B48007860403A49087000203A4908706D
:1022C00038480078102802D900F07EF809E0354837
:1022D000007818B905203049087002E004202E4922
:1022E000087056E0304801780078401C2E4A107083
:1022F0002E4844542A480078604029490870104606
:10230000007828490978884202DB052022490870B4
:102310003FE023480078844217D120480078012804
:1023200013D12048007803280FD120480078204995
:1023300008701E4840781F4908801C4880781E4954
:10234000088001201D4908701DE01548007884426E
:102350000BD112480078022807D11248007820B922
:102360000120174908700EE010E00D480078844203
:1023700009D10A480078032805D10A48007810B925
:1023800001201049087000F01FF802E000F01CF86E
:1023900000BF00BF10BD000041000020420000202F
:1023A000450000204300002044000020900300204E
:1023B00047000020480000204A000020460000207E
:1023C0004C0000204D00002010B500200749087087
:1023D00007490870074908700749087007490870DD
:1023E00010210748FDF738FF10BD00004100002014
:1023F000420000204300002044000020450000204F
:102400009003002010B504460B480088802808D2AD
:10241000094801880088401C074A10800748445436
:1024200002E0002004490880012005490870204688
:10243000FFF71AFF10BD00003E000020100300202F
:102440004000002001B54FF47A730122694602482A
:1024500002F042FE08BD00003802002070B50546BB
:1024600005B970BD002404E0285DFFF7EBFF601C98
:1024700084B22846FDF7FBFE80B2A042F4DC00F0F7
:1024800002F800BFEDE710B5FF20FFF7DBFFFF20EC
:10249000FFF7D8FFFF20FFF7D5FF10BD30B591B093
:1024A00004460D460CB911B030BD234605A24021AB
:1024B00001A8009505F012F901A8FFF7CFFF00BFB2
:1024C000F1E7000025732E76616C3D256C640000F9
:1024D0007047000070B5044614B10848007800B990
:1024E00070BD2046FDF7C3FE85B24FF47A732A46CD
:1024F0002146034802F0F0FD00BFF1E73C00002058
:1025000038020020F0B587B006460F460025214866
:10251000007808B907B0F0BD06B11FB91EA0FFF7DB
:10252000D9FFF7E700241EE0305D1E4901EB1010D3
:1025300002782846691CCDB201A90A54305D00F02A
:102540000F0018490A5C2846691CCDB201A90A543B
:10255000601CB84205D220222846691CCDB201A9D0
:102560000A54601CC4B2BC4201DA072CDCD30D2231
:102570002846691CCDB201A90A540A222846691CC2
:10258000CDB201A90A540020485501A8FFF7A2FFC7
:1025900000BFBFE73C000020286E6F6E65290D0A62
:1025A00000000000908500080FB410B5A2B0249878
:1025B00010B11048007818B922B010BC5DF814FBB7
:1025C00025A80190802102A8019B249A05F0A0F87B
:1025D000044600200190002C00DCEDE7802C00DB9D
:1025E0007F24A2B24FF47A7302A9034802F074FD6B
:1025F00000BFE1E73C0000203802002038B5024669
:102600000020009000BF92F83C00012801D1022078
:1026100038BD012082F83C0000BF0868092816D99F
:102620001068C0680C780A3C04EB44050724AC40F1
:10263000A0431468E0600C780A3C04EB440488680A
:10264000A0401468E46820431468E06013E0106858
:1026500000690C7804EB44050724AC40A0431468DF
:1026600020610C7804EB44048868A0401468246955
:102670002043146820614868072817D21068406B0F
:102680000C79641E04EB84051F24AC40A04314683D
:102690006063088880B20C79641E04EB8404A04057
:1026A0001468646B20431468606331E048680D2847
:1026B00017D21068006B0C79E41F04EB84051F240B
:1026C000AC40A04314682063088880B20C79E41FF2
:1026D00004EB8404A0401468246B20431468206336
:1026E00016E01068C06A0C790D3C04EB84051F24C9
:1026F000AC40A0431468E062088880B20C790D3CBD
:1027000004EB8404A0401468E46A20431468E06287
:10271000194B1A4C1068A04206D10868122803D140
:10272000586840F480005860144C1068A0421CD1D6
:102730000868102802D00868112816D1586840F49B
:1027400000005860086810280FD10D4800680D4C33
:10275000B0FBF4F000EB80004000009002E0009835
:10276000401E009000980028F9D100BF002082F898
:102770003C0000BF00BF4BE70023014000200140A8
:102780003800002040420F0001460868C06C7047C6
:1027900070B5044600250CB9012070BD1549A06A2A
:1027A000884200D000BF206C30B9204600F024F8E9
:1027B0000020606484F83C00206C00F0100088B9B0
:1027C000206C20F4885040F0020020642046FDF781
:1027D000D1FF00206064206C20F0020040F0010076
:1027E000206400E0012500BF002084F83C0000BF09
:1027F0002846D2E70100000F10B586B00446142128
:1028000001A8FDF729FD1949206888422BD100BF96
:10281000002000901648006840F480701449086059
:102820000846006800F48070009000BF00BF00BF41
:10283000002000900E481438006840F004000C4955
:10284000143908600846006800F00400009000BFDA
:1028500000BF20200190032002900020039001A9D6
:10286000044800F0B9F906B010BD00000020014096
:10287000443802400008024070B504460D46002668
:102880002068806800F48060B0F5806F11D1206806
:10289000806800F48070B0F5807F0AD1206C40F031
:1028A0002000206400BF002084F83C0000BF01200D
:1028B00070BD00F099FA064618E0681CB0B125B169
:1028C00000F092FA801BA84210D92068006800F03E
:1028D000020002280AD0206C40F00400206400BFEF
:1028E000002084F83C0000BF0320E1E72068006876
:1028F00000F002000228E0D16FF0120021680860A9
:10290000206C40F4007020642068806800F0405023
:10291000B8B9207EA8B92068C06A00F4700020B160
:102920002068806800F4806058B9206C20F48070C2
:102930002064206C00F4805018B9206C40F0010035
:1029400020640020B4E7000008B501460020009094
:1029500000BF91F83C00012801D1022008BD0120F0
:1029600081F83C0000BF0868806800F00100A0B951
:102970000868806840F001000B6898603F48006874
:102980003F4BB0FBF3F000EB4000009002E00098FA
:10299000401E009000980028F9D10868806800F077
:1029A0000100002860D0086C40F20163984340F4B5
:1029B000807008640868406800F4806028B1086C82
:1029C00020F4005040F480500864086C00F48050FB
:1029D000B0F5805F04D1486C20F00600486401E047
:1029E0000020486400BF002081F83C0000BF254A59
:1029F0006FF022000B681860506800F01F0018BBD1
:102A0000214B0868984213D0204B0868984204D1A3
:102A1000101D006800F01F0050B11D4B086898425F
:102A20002AD11848001D006800F01F00102823D28A
:102A30000868806800F04050F0B90868806840F08D
:102A400080400B68986017E00F4B0868984213D1DC
:102A50000868806800F0405070B90868806840F0ED
:102A600080400B68986007E0086C40F01000086434
:102A7000486C40F00100486400206FE738000020F7
:102A800040420F000023014000200140002101408E
:102A900000220140014600BF91F83C00012801D10D
:102AA00002207047012081F83C0000BF0868806860
:102AB00020F001000A6890600868806800F001005A
:102AC00028B9086C20F4885040F00100086400BF69
:102AD000002081F83C0000BF00BFE2E770B504466B
:102AE000A56D00F081F9064694F83500022808D05B
:102AF0008020606500BF002084F8340000BF012002
:102B000070BD2068006820F0160021680860206809
:102B1000406920F0800021684861206C08B9A06CF1
:102B200028B12068006820F008002168086020684B
:102B3000006820F001002168086010E000F054F9FE
:102B4000801B05280BD920206065032084F8350000
:102B500000BF002084F8340000BF0320D0E72068C5
:102B6000006800F001000028E8D194F85C103F20D4
:102B70008840A860012084F8350000BF002084F858
:102B8000340000BF00BFBBE7014691F835000228C2
:102B900003D08020486501207047052081F835006A
:102BA0000868006820F001000A6810600020F3E760
:102BB00070B5044600F018F906462546681C10B1A9
:102BC00004480078054400BF00F00EF9801BA842BD
:102BD000FAD370BD34000020F8B502460B4600253C
:102BE000002400200021D6E0012606FA01F51E6827
:102BF00006EA0504AC4274D11E7906F00306012EE4
:102C000004D01E7906F00306022E13D190684F00FF
:102C10000326BE40B0434F00DE68BE4030439060A4
:102C2000506801268E40B0431E79C6F300168E40D0
:102C3000304350601E7906F00306032E09D0D06899
:102C40004F000326BE40B0434F009E68BE40304355
:102C5000D0601E7906F00306022E13D1CF0802F1D0
:102C6000200656F827004E07F70E0F26BE40B04349
:102C70004F07FF0E1E69BE403043CF0802F1200609
:102C800046F8270010684F000326BE40B0431E7967
:102C900006F003064F00BE40304310605E6806F445
:102CA0004036002E76D000BF002600963C4E366897
:102CB00046F480463A4F3E603E46366806F480460B
:102CC000009600BF00BF374E8F0856F827008E07CA
:102CD000370F0F26BE40B043334EB24202D100261A
:102CE00024E057E0314EB24201D101261EE0304EC1
:102CF000B24201D1022619E02E4EB24201D1032682
:102D000014E02D4EB24201D104260FE02B4EB24208
:102D100001D105260AE02A4EB24201D1062605E07D
:102D2000284EB24201D1072600E008268F073F0F48
:102D3000BE4030431B4E8F0846F82700224E3068B5
:102D4000A0435E6806F4801606B120431E4E306034
:102D5000361D3068A0435E6806F4001606B12043B5
:102D6000194E361D3060184E361F3068A0435E681D
:102D700006F4003606B12043134E361F3060361F6E
:102D80003068A0435E6806F4803606B120430E4EDC
:102D9000083E3060491C1029FFF426AFF8BD000042
:102DA000443802400838014000000240000402405C
:102DB00000080240000C02400010024000140240D3
:102DC00000180240001C0240083C01400246136902
:102DD0000B400BB1012000E0002070470AB1816177
:102DE00001E00B04836170470148006870470000F0
:102DF0002C00002070B504460CB9012070BD94F879
:102E00003D0028B9002084F83C00204600F02AFE4E
:102E1000242084F83D002068006820F0010021682B
:102E200008602068006840F400402168086020685D
:102E3000006820F400402168086001F02FF8054682
:102E40005C496068884206D85B48854201D201200F
:102E500007E0002005E05948854201D2012000E04A
:102E60000020012800D1C9E75548B5FBF0F62068DD
:102E7000406820F03F003043216848604D49606859
:102E8000884201D8701C07E04FF4967070434FF4ED
:102E90007A71B0FBF1F0401C2168096A21F03F0112
:102EA00008432168086243496068884214D8681E54
:102EB00061684900B0FBF1F0401CC0F30B0004282E
:102EC00001D204203DE0681E61684900B0FBF1F0CA
:102ED000401CC0F30B0034E0A06838B9681E61687C
:102EE00001EB4101B0FBF1F0401C0AE0681E616893
:102EF00001EBC10202EB0111B0FBF1F0401C40F408
:102F00008040C0F30B0008B901201AE0A06848B95E
:102F1000681E616801EB4101B0FBF1F0401CC0F399
:102F20000B000CE0681E616801EBC10202EB0111AD
:102F3000B0FBF1F0401CC0F30B0040F4804040F4C3
:102F400000402168C9694CF6FF729143084321682B
:102F5000C861D4E9070108432168096821F0C0016C
:102F6000084321680860D4E9031008432168896890
:102F700048F2FF329143084321688860D4E9050193
:102F800008432168C96821F0FF0108432168C8602F
:102F90002068006840F0010021680860002020647B
:102FA000202084F83D000020206384F83E0000BF0C
:102FB00024E70000A086010080841E0000093D0077
:102FC00040420F002DE9F84F04460F4690461E463A
:102FD000FFF70AFF05464FF0000994F83D0020284E
:102FE0007ED11923012263492046009502F0B9FCE5
:102FF00010B10220BDE8F88F00BF94F83C00012812
:1030000001D10220F6E7012084F83C0000BF2068CF
:10301000006800F0010028B92068006840F0010055
:10302000216808602068006820F40060216808605A
:10303000242084F83D00002020644F48E06200BF57
:103040002068006840F480702168086033460022E0
:103050004FF001112046009502F083FC58B1206822
:10306000006800F48070B0F5807F02D14FF40070EA
:1030700020640320BEE707F0FE0021680861FFF727
:10308000B3FE054620684069C0F3400A20684069E5
:10309000C0F3802B10E0FFF7A7FE401BB04200D822
:1030A00016B9A02084F83D0020684069C0F3400AAA
:1030B00020684069C0F3802B94F83D00A02805D01B
:1030C000BAF1000F02D1BBF1000FE4D0202084F848
:1030D0003D0020684069C0F3400028B3206800E04C
:1030E00045E0006840F400702168086000BF0020DF
:1030F000009020684069009020688069009000BFBF
:1031000000BF192301221B492046009502F029FC2B
:1031100008B101206EE7202084F83D0000BF0020A8
:1031200084F83C0000BF65E72068006840F4007048
:10313000216808606FF480602168486119230122CA
:103140000C492046009502F00CFC08B1012051E723
:1031500009F10109C145FFF473AF202084F83D0057
:1031600000BF002084F83C0000BF012042E702209D
:1031700040E70000020010000000FFFF2DE9F843C7
:103180000446894617469846089EFFF72DFE0546D9
:1031900094F83D0020287DD119230122B74920460B
:1031A000009502F0DEFB10B10220BDE8F88300BFFD
:1031B00094F83C00012801D10220F6E7012084F8B0
:1031C0003C0000BF2068006800F0010028B92068BA
:1031D000006840F00100216808602068006820F461
:1031E000006021680860222084F83D00102084F8E7
:1031F0003E00002020646762A4F82A80608D20854C
:103200009F48E0622B4632464946204602F05AF972
:1032100008B10120C9E7208D88B900BF00200090C7
:1032200020684069009020688069009000BF00BF5E
:103230002068006840F400702168086047E0208D35
:10324000012817D12068006820F480602168086098
:1032500000BF0020009020684069009020688069CD
:10326000009000BF00BF2068006840F40070216833
:1032700008602CE0208D022818D12068006820F416
:103280008060216808602068006840F40060216860
:10329000086000E0EFE000BF002000902068406977
:1032A000009020688069009000BF10E020680068EE
:1032B00040F480602168086000BF00200090206812
:1032C0004069009020688069009000BF00BFC3E0A3
:1032D000208D03287ED8208D012815D12A4631461D
:1032E000204602F01AFC08B101205EE72068006960
:1032F000616A0870606A401C6062208D401E2085F3
:10330000608D401E6085A7E0208D02282AD13346BB
:1033100000225C492046009502F023FB08B1012001
:1033200043E72068006840F4007021680860206866
:103330000069616A0870606A401C6062208D401EEE
:103340002085608D401E608520680069616A087074
:10335000606A401C6062208D401E2085608D401E8A
:10336000608579E03346002246492046009502F008
:10337000F8FA08B1012018E72068006820F480609E
:103380002168086020680069616A0870606A401CF2
:103390006062208D401E2085608D401E6085334612
:1033A000002238492046009502F0DBFA08B10120DE
:1033B000FBE62068006840F400702168086020681F
:1033C0000069616A0870606A401C6062208D401E5E
:1033D000208500E010E0608D401E60852068006957
:1033E000616A0870606A401C6062208D401E208502
:1033F000608D401E60852FE02A463146204602F04F
:103400008CFB08B10120D0E620680069616A087071
:10341000606A401C6062208D401E2085608D401EC9
:10342000608520684069C0F38000A8B1208D032822
:1034300005D12068006820F4806021680860206859
:103440000069616A0870606A401C6062208D401EDD
:103450002085608D401E6085208D00287FF438AF68
:10346000202084F83D00002084F83E0000BF84F84E
:103470003C0000BF99E6022097E600000200100021
:103480000000FFFF040001002DE9F84304468946CF
:1034900016461F46DDF82080FFF7A6FC054694F887
:1034A0003D0020287ED11923012251492046009554
:1034B00002F057FA10B10220BDE8F88300BF94F87B
:1034C0003C00012801D10220F6E7012084F83C00ED
:1034D00000BF2068006800F0010028B9206800687B
:1034E00040F00100216808602068006820F4006056
:1034F00021680860212084F83D00102084F83E00F7
:103500000020206466626785608D20853948E0620E
:103510002B4642464946204602F070F808B1012089
:10352000CAE700BF00200090206840690090206832
:103530008069009000BF00BF44E02A464146204613
:1035400002F030FB50B1206C042805D120680068DF
:1035500040F40070216808600120ADE7606A0078DF
:1035600021680861606A401C6062608D401E608551
:10357000208D401E208520684069C0F3800070B116
:10358000208D60B1606A007821680861606A401C23
:103590006062608D401E6085208D401E20852A4619
:1035A000414600E022E0204602F0A8F950B1206C2C
:1035B000042805D12068006840F400702168086084
:1035C000012079E7208D0028B7D12068006840F4F9
:1035D000007021680860202084F83D00002084F8F5
:1035E0003E0000BF84F83C0000BF65E7022063E7AF
:1035F000020010000000FFFF2DE9FC5F04460F46AB
:1036000090469946DDE90CAB0E9EFFF7EDFB0546B3
:1036100094F83D00202870D119230122B549204695
:10362000009502F09EF910B10220BDE8FC9F00BF9A
:1036300094F83C00012801D10220F6E7012084F82B
:103640003C0000BF2068006800F0010028B9206835
:10365000006840F00100216808602068006820F4DC
:10366000006021680860222084F83D00402084F832
:103670003E0000202064C4F824A0A4F82AB0608D85
:1036800020859D48E0624B46424639462046CDE9BA
:10369000006502F013F808B10120C6E7208D88B953
:1036A00000BF002001902068406901902068806977
:1036B000019000BF00BF2068006840F400702168DE
:1036C000086040E0208D012818D12068006820F4AF
:1036D00080602168086000BF002001902068406978
:1036E000019020688069019000BF00BF20680068D9
:1036F00040F400702168086025E0F8E0208D022881
:1037000016D12068006820F4806021680860206875
:10371000006840F400602168086000BF002001904C
:1037200020684069019020688069019000BF0AE02C
:1037300000BF0020019020684069019020688069E6
:10374000019000BF00BFC3E0208D03287ED8208DEC
:10375000012815D12A463146204602F0DEF908B18B
:10376000012062E720680069616A0870606A401C95
:103770006062208D401E2085608D401E6085A7E020
:10378000208D02282AD1334600225C49204600952C
:1037900002F0E7F808B1012047E72068006840F42C
:1037A00000702168086020680069616A0870606ABA
:1037B000401C6062208D401E2085608D401E60850B
:1037C00020680069616A0870606A401C6062208D30
:1037D000401E2085608D401E608579E033460022C2
:1037E00046492046009502F0BCF808B101201CE7CC
:1037F0002068006820F48060216808602068006903
:10380000616A0870606A401C6062208D401E2085DD
:10381000608D401E60853346002238492046009561
:1038200002F09FF808B10120FFE62068006840F42C
:1038300000702168086020680069616A0870606A29
:10384000401C6062208D401E208500E010E0608DED
:10385000401E608520680069616A0870606A401CCB
:103860006062208D401E2085608D401E60852FE0A7
:103870002A463146204602F050F908B10120D4E62C
:1038800020680069616A0870606A401C6062208D6F
:10389000401E2085608D401E608520684069C0F311
:1038A0008000A8B1208D032805D12068006820F48D
:1038B00080602168086020680069616A0870606A39
:1038C000401C6062208D401E2085608D401E6085FA
:1038D000208D00287FF438AF202084F83D000020A0
:1038E00084F83E0000BF84F83C0000BF9DE6022043
:1038F0009BE60000020010000000FFFF0400010032
:103900002DE9FC5F04460F4690469946DDE90CAB75
:103910000E9EFFF769FA054694F83D0020287DD1F8
:10392000192301224D492046009502F01AF810B1E2
:103930000220BDE8FC9F00BF94F83C00012801D1A3
:103940000220F6E7012084F83C0000BF20680068F0
:1039500000F0010028B92068006840F001002168EB
:1039600008602068006820F4006021680860212059
:1039700084F83D00402084F83E0000202064C4F814
:1039800024A0A4F82AB0608D20853548E0624B461B
:10399000424639462046CDE9006501F03FFF08B1B7
:1039A0000120C6E731E02A463146204602F0FAF807
:1039B00050B1206C042805D12068006840F40070E4
:1039C000216808600120B4E7606A00782168086116
:1039D000606A401C6062208D401E2085608D401E04
:1039E000608520684069C0F3800070B1208D60B1AF
:1039F000606A007821680861606A401C6062208DFE
:103A0000401E2085608D401E6085208D0028CAD113
:103A10002A463146204601F071FF00E01CE050B11B
:103A2000206C042805D12068006840F400702168EB
:103A3000086001207DE72068006840F4007021687C
:103A40000860202084F83D00002084F83E0000BF7C
:103A500084F83C0000BF6CE702206AE70200100017
:103A60000000FFFF10B586B00446142101A8FCF742
:103A7000F3FB3549206888422FD100BF0020009019
:103A80003248006840F0020030490860084600688B
:103A900000F00200009000BF00BFC0200190122083
:103AA000029000200390032004900420059001A9B7
:103AB0002748FFF791F800BF0020009023481030FE
:103AC000006840F400102149103108600846006881
:103AD00000F40010009000BF34E01E4920688842C6
:103AE00030D100BF002000901848006840F002006C
:103AF000164908600846006800F00200009000BF08
:103B000000BF4FF44060019012200290002003900B
:103B1000032004900420059001A90D48FFF75CF8EC
:103B200000BF0020009009481030006840F4800079
:103B30000649103108600846006800F480000090D3
:103B400000BF00BF06B010BD005400403038024036
:103B50000004024000580040034800680349097807
:103B600008440149086070472C0000203400002000
:103B700010B50D48006840F400700B490860084615
:103B8000006840F4806008600846006840F4807077
:103B90000860032000F0A6F8002000F007F800F00D
:103BA0002BF8002010BD0000003C024070B5044618
:103BB0000E4800784FF47A71B1FBF0F00C490968B7
:103BC000B1FBF0F5284600F09BFF08B1012070BD65
:103BD000102C07D200222146501E00F045F805485F
:103BE000046001E00120F2E70020F0E7340000204B
:103BF000380000203000002008B500BF00200090F1
:103C00000E48006840F480400C490860084600688F
:103C100000F48040009000BF00BF00BF0020009073
:103C2000081F006840F08050091F086008460068BF
:103C300000F08050009000BF00BF08BD4438024033
:103C40000146084600280DDB00BF00BF00F01F033F
:103C500001229A4043099B0003F1E023C3F80021AD
:103C600000BF00BF00BF70472DE9F05F80460D46E2
:103C70001646002703F066FD074639462A463346B6
:103C800001F00700C0F1070ABAF1040F02D94FF0A2
:103C9000040A01E0C0F1070AD14600F1040ABAF1B2
:103CA000070F02D24FF0000A01E0A0F1030AD44648
:103CB0004FF0010A0AFA09FAAAF1010A0AEA020A0D
:103CC0000AFA0CFA4FF0010B0BFA0CFBABF1010BEB
:103CD0000BEA030B4AEA0B042146404603F03AFD87
:103CE000BDE8F09F00BF00F00702064B19684FF6D1
:103CF000FF031940044B0B4343EA0221014B1960B7
:103D000000BF70470CED00E00000FA0570B50446F6
:103D10000D460CB9012070BD5848006800F007003E
:103D2000A84209D255490D700846006800F0070006
:103D3000A84201D00120EEE7207800F0020002281E
:103D40001DD1207800F00400042805D14C480068FB
:103D500040F4E0504A490860207800F00800082844
:103D600005D14748006840F4604045490860444830
:103D7000006820F0F000A1680843414908602078FD
:103D800000F00100A8B36068012807D13C4808385A
:103D90000068C0F34040B8B90120BCE76068022861
:103DA00002D06068032807D1354808380068C0F39E
:103DB000406048B90120AEE7314808380068C0F3D8
:103DC000400008B90120A6E72D48006820F0030054
:103DD000616808432A490860FFF706F8064609E0CB
:103DE000FFF702F8801B41F28831884202D9032094
:103DF00091E707E02248006800F00C006168B0EB32
:103E0000810FEDD11D48006800F00700A84209D9D4
:103E10001A490D700846006800F00700A84201D05A
:103E2000012078E7207800F00400042807D1144826
:103E3000006820F4E050E1680843114908602078E8
:103E400000F00800082808D10D48006820F4604000
:103E5000216940EAC1000A49086000F03FF80849BA
:103E60000968C1F30311074A515CC840064908605C
:103E700006480068FFF79AFE00204CE7003C02402D
:103E80000838024078850008380000203000002003
:103E900001480068704700003800002000B5FFF7B7
:103EA000F7FF04490968C1F38221034A515CC84005
:103EB00000BD0000083802408885000800B5FFF703
:103EC000E7FF04490968C1F34231034A515CC84025
:103ED00000BD000008380240888500082DE9F04741
:103EE000002400250026A1462548006800F00C00AB
:103EF00020B1042805D008283AD105E0DFF88490E5
:103F000039E0DFF8849036E01D48001F006800F0BB
:103F10003F041B48001F006800F4800078B11A4875
:103F20001749091F0968C1F38811A0FB01700146F8
:103F3000224600233846FCF745F905460EE01148B5
:103F40000F49091F0968C1F38811A0FB01700146E0
:103F5000224600233846FCF735F905460848001F7D
:103F60000068C0F30140401C4600B5FBF6F902E0D2
:103F7000DFF8109000BF00BF4846BDE8F0870000A2
:103F8000083802400024F40000127A00F8B5044614
:103F90000CB90120F8BD207800F00100002874D091
:103FA000F948006800F00C0004280DD0F6480068BD
:103FB00000F00C00082813D1F348001F006800F43B
:103FC0008000B0F5800F0BD1EF4808380068C0F3CF
:103FD0004040002859D06068002856D10120D9E718
:103FE00000BF6068B0F5803F08D1E7480838006836
:103FF00040F48030E449083908601EE06068B0F59C
:10400000A02F0DD1E0480838006840F48020DE4938
:10401000083908600846006840F4803008600CE009
:10402000D9480838006820F48030D749083908603A
:104030000846006820F48020086000BF606890B1E6
:10404000FEF7D2FE054606E0FEF7CEFE401B6428D2
:1040500001D903209EE7CC4808380068C0F34040EF
:104060000028F1D011E0FEF7BFFE054606E0FEF79E
:10407000BBFE401B642801D903208BE7C2480838E7
:104080000068C0F340400028F1D1207800F0020021
:1040900002285FD1BC48006800F00C0058B1BA4853
:1040A000006800F00C0008281CD1B748001F006809
:1040B00000F48000B0B9B44808380068C0F340008C
:1040C00020B1E068012801D0012063E7AE4808383C
:1040D000006820F0F800216940EAC100AA490839C7
:1040E000086037E0E06800B30120A8490860FEF7E7
:1040F0007BFE054606E0FEF777FE401B022801D94D
:10410000032047E7A04808380068C0F340000028B3
:10411000F1D09D480838006820F0F800216940EA95
:10412000C10099490839086014E0002097490860E7
:10413000FEF75AFE054606E0FEF756FE401B022833
:1041400001D9032026E7904808380068C0F34000F2
:104150000028F1D1207800F0080008282CD16069EF
:10416000A8B101208A490860FEF73EFE054606E038
:10417000FEF73AFE401B022801D903200AE78248D5
:104180006C300068C0F340000028F1D014E000203B
:104190007F490860FEF728FE054606E0FEF724FE8C
:1041A000401B022801D90320F4E677486C300068F0
:1041B000C0F340000028F1D1207800F0040004286A
:1041C00070D1002770483830006800F0805090B9F6
:1041D00000BF002000906C483830006840F08050EC
:1041E0006949383108600846006800F08050009046
:1041F00000BF00BF01276748006800F48070B0B9B5
:104200006448006840F4807062490860FEF7ECFD85
:10421000054606E0FEF7E8FD401B022801D9032011
:10422000B8E65C48006800F480700028F2D000BF57
:10423000A068012808D154486830006840F00100A7
:104240005149683108601DE0A06805280DD14E482D
:104250006830006840F004004B4968310860084647
:10426000006840F0010008600CE0474868300068D2
:1042700020F001004449683108600846006820F0D9
:104280000400086000BFA068A8B1FEF7ADFD0546B8
:1042900009E0FEF7A9FD401B41F28831884202D9AE
:1042A000032077E626E0384868300068C0F3400015
:1042B0000028EED013E0FEF797FD054608E0FEF774
:1042C00093FD401B41F28831884201D9032061E609
:1042D0002D4868300068C0F340000028EFD1012F5E
:1042E00007D129483830006820F0805026493831FD
:1042F000086000BFA069002845D02348006800F08E
:104300000C0008285DD0A069022845D100201F4973
:104310000866FEF769FD054606E0FEF765FD401BF1
:10432000022801D9032035E6174808380068C0F391
:1043300040600028F1D1D4E907010843616A40EAEE
:1043400081110122A06AC2EB500041EA00412C20F9
:10435000005D41EA00600C49091F086001200B491B
:104360000866FEF741FD054606E0FEF73DFD401BF1
:10437000022801D903200DE6034808380068C0F37D
:1043800040600028F1D049E0083802400000474270
:10439000800E474200700040002021490866FEF769
:1043A00023FD054606E0FEF71FFD401B022801D94C
:1043B0000320EFE51B480068C0F340600028F2D1FD
:1043C0002CE0A069012800D1E4E51648001D06682C
:1043D000A069012820D006F48001E06981421BD148
:1043E00006F03F01206A814216D147F6C070304086
:1043F000616AB0EB811F0FD106F440310122A06A3F
:10440000C2EB5000B1EB004F06D106F070612C20DA
:10441000005DB1EB006F01D00120BBE50020B9E5E4
:10442000000047420038024010B504460CB9012094
:1044300010BD606A38B96068B0F5827F00D105E0D0
:104440000021E16102E00021216161610021A1629E
:1044500094F8510028B9002084F85000204600F05C
:1044600047F8022084F851002068006820F04000DE
:1044700021680860A08800F48270218901F4044159
:104480000843A18901F400610843217C01F0020185
:104490000843217D01F001010843218B01F40071E3
:1044A0000843217F01F0380108432021095D01F014
:1044B00080010843218D01F4005108432168086000
:1044C0000421A06901EA104094F8241001F01001C1
:1044D0000843216848602068C06920F400602168B2
:1044E000C86100206065012084F8510000209FE72A
:1044F00010B586B00446142101A8FBF7ADFE1B4998
:10450000206888422FD100BF002000901848006822
:1045100040F48050164908600846006800F4805056
:10452000009000BF00BF00BF00200090104814386A
:10453000006840F001000E49143908600846006820
:1045400000F00100009000BF00BFE02001900220B9
:10455000029000200390032004900520059001A9FB
:104560000448FEF739FB06B010BD000000300140E2
:1045700044380240000002402DE9F84304468846D2
:1045800016461D4694F85100012802D00220BDE8CD
:10459000F883B8F1000F00D00EB90120F7E760688A
:1045A000B0F5827F0CD1A06850B9042084F8510086
:1045B0003346424641462046009500F07DF9E6E745
:1045C000FEF712FC074600BF94F85000012801D105
:1045D0000220DCE7012084F8500000BF042084F8AA
:1045E000510000206065C4F83880A687E687206304
:1045F000A086E08620646064A068B0F5004F0BD10F
:104600002068006820F04000216808602068006889
:1046100020F48040216808602068006800F04000B5
:10462000402805D02068006840F0400021680860FC
:10463000E06830BB21E02068806800F0010050B1E4
:104640002068007BA16B0870A06B401CA063E08F0A
:10465000401EE08711E0FEF7C7FBC01BA84201D354
:10466000681C00B94DB9012084F8510000BF00203A
:1046700084F8500000BF032089E7E08F0028DAD1DA
:1046800025E021E02068806800F0010050B120683A
:10469000C068A16B0880A06B801CA063E08F401EE7
:1046A000E08711E0FEF7A0FBC01BA84201D3681C05
:1046B00000B94DB9012084F8510000BF002084F8F2
:1046C000500000BF032062E7E08F0028DAD13A46AD
:1046D0002946204602F0C3FA08B120206065012077
:1046E00084F8510000BF002084F8500000BF606DC6
:1046F00008B101204BE7002049E72DE9F8430446C3
:104700000F4616461D46FEF76FFB8046B14694F8ED
:104710005100012802D00220BDE8F88307B10EB98C
:104720000120F9E700BF94F85000012801D10220D0
:10473000F2E7012084F8500000BF032084F8510004
:10474000002060652763A686E686A063A087E087D1
:1047500060642064A068B0F5004F0BD12068006849
:1047600020F04000216808602068006840F4804024
:10477000216808602068006800F04000402805D0EB
:104780002068006840F0400021680860E068B0F5EB
:10479000006F37D1606810B1B9F1010F09D1206BFA
:1047A00000882168C860206B801C2063E08E401E5A
:1047B000E08623E02068806800F0020002280AD129
:1047C000206B00882168C860206B801C2063E08E0D
:1047D000401EE08612E0FEF707FBA0EB0800A842AF
:1047E00001D3681C00B94DB9012084F8510000BF05
:1047F000002084F8500000BF03208DE7E08E0028E1
:10480000D8D136E0606810B1B9F1010F09D1206B41
:10481000007821680873206B401C2063E08E401EE6
:10482000E08623E02068806800F0020002280AD1B8
:10483000206B007821680873206B401C2063E08E99
:10484000401EE08612E0FEF7CFFAA0EB0800A84277
:1048500001D3681C00B94DB9012084F8510000BF94
:10486000002084F8500000BF032055E7E08E0028A8
:10487000D8D142462946204602F03CFA08B1202011
:104880006065A06850B900BF002000902068C06833
:10489000009020688068009000BF00BF012084F86D
:1048A000510000BF002084F8500000BF606D08B1C7
:1048B000012031E700202FE72DE9FE4F04460F4687
:1048C00090461D460C9E01200190FEF78DFA814610
:1048D00094F851B060680290AA46BBF1010F0BD06A
:1048E0000298B0F5827F04D1A06810B9BBF1040F23
:1048F00002D00220BDE8FE8F1FB1B8F1000F00D03A
:104900000DB90120F6E700BF94F85000012801D14D
:104910000220EFE7012084F8500000BF94F8510016
:10492000042802D0052084F8510000206065C4F8F6
:104930003880E587A5872763E586A58620646064BF
:104940002068006800F04000402805D0206800681A
:1049500040F0400021680860E068B0F5006F52D177
:10496000606810B1BAF1010F09D1206B008821688D
:10497000C860206B801C2063E08E401EE0863BE018
:104980002068806800F00200022810D1E08E70B12B
:10499000019801280BD1206B00882168C860206B2A
:1049A000801C2063E08E401EE0860020019020687D
:1049B000806800F0010068B1E08F58B12068C068DD
:1049C000A16B0880A06B801CA063E08F401EE08775
:1049D00001200190FEF708FAA0EB0900B0420BD3CA
:1049E000701C48B1012084F8510000BF002084F8F9
:1049F000500000BF03207DE7E08E0028C0D1E08F8B
:104A00000028BDD152E0606810B1BAF1010F09D1A0
:104A1000206B007821680873206B401C2063E08EB7
:104A2000401EE0863CE02068806800F0020002281A
:104A300010D1E08E70B1019801280BD1206B007865
:104A400021680873206B401C2063E08E401EE086C6
:104A5000002001902068806800F0010068B1E08FBC
:104A600058B12068C068A16B0870A06B401CA0639F
:104A7000E08F401EE08701200190FEF7B5F9A0EB22
:104A80000900B04201D3701C00B94EB9012084F86E
:104A9000510000BF002084F8500000BF032029E728
:104AA000E08E0028BFD1E08F0028BCD14A463146B5
:104AB000204602F01FF940B12020606500BF0020B1
:104AC00084F8500000BF012014E7A06850B900BF6F
:104AD000002000902068C0680090206880680090E6
:104AE00000BF00BF012084F8510000BF002084F8FF
:104AF000500000BF606D08B10120FBE60020F9E620
:104B000070B504462546681EB0F1807F01D30120B0
:104B10000FE0681E4FF0E02148610F214FF0FF3099
:104B200002F018FE00204FF0E021886107200861A4
:104B3000002070BD7047000010B5044607480068AB
:104B400018B106480068844200D010BD03F01CFB79
:104B50000020606403F0C2FB00BFF6E7A400002061
:104B60002DE9F84F0446206805682068C66820686B
:104B700047694FF00009CA4605F00F09B9F1000F67
:104B80000AD105F0200038B106F0200020B12046FF
:104B900002F0F9FABDE8F88FB9F1000F7CD007F008
:104BA000010018B906F49070002875D005F00100D6
:104BB00030B106F4807018B1606C40F001006064A0
:104BC00005F0040030B107F0010018B1606C40F04E
:104BD0000200606405F0020030B107F0010018B176
:104BE000606C40F00400606405F0080048B106F015
:104BF000200010B907F0010018B1606C40F0080007
:104C00006064606C002846D005F0200028B106F0F2
:104C1000200010B1204602F0B6FA20684069C0F3C7
:104C2000801A606C00F0080010B9BAF1000F2DD0A6
:104C3000204602F062FA2068406900F040004028F7
:104C400020D100BF00BF2168143151E8001F21F0BE
:104C500040002168143141E80002002AF3D100BF6E
:104C6000E06B50B17F48E16B0865E06BFDF78CFFAE
:104C700088B1E06B016D88470DE02046FFF75CFFCF
:104C800009E009E02046FFF757FF04E02046FFF760
:104C900053FF002060647DE7206B012878D105F088
:104CA0001000002874D006F010000028FAD000BFD1
:104CB0000020009020680068009020684068009004
:104CC00000BF00BF2068406900F04000402870D15C
:104CD000E06B006840681FFA80F8B8F1000F58D008
:104CE000A08D404555DDA4F82E80E06BC069B0F57D
:104CF000807F43D000BF00BF21680C3151E8001F06
:104D000021F4807021680C3141E80002002AF3D1BF
:104D100000BF00BF00BF2168143151E8001F21F01F
:104D200001002168143141E80002002AF3D100BFDC
:104D300000BF00BF2168143151E8001F21F040007E
:104D40002168143141E80002002AF3D100BF20207D
:104D500084F842000020206300BF00BF21680C31AE
:104D600051E8001F21F0100021680C3141E80002D9
:104D7000002AF3D100BFE06BFDF7B0FE02206063B4
:104D8000A08DE28D801A81B22046FFF7D3FE0EE09F
:104D900052E0A08D40450AD1E06BC069B0F5807F3C
:104DA00005D102206063A18D2046FFF7C3FEF1E626
:104DB000FFE7A08DE18D401A1FFA80F8E08DD0B397
:104DC000B8F1000F37D000BF00BF21680C3151E8A7
:104DD000001F21F4907021680C3141E80002002A84
:104DE000F3D100BF00BF00BF2168143151E8001F9C
:104DF00021F001002168143141E80002002AF3D1BA
:104E000000BF202084F842000020206300BF00BFC4
:104E100021680C3151E8001F21F0100021680C318D
:104E200041E80002002AF3D100BF0220606341463E
:104E30002046FFF77FFEADE605F0800030B106F0BA
:104E4000800018B1204602F053FBA3E605F04000B5
:104E500030B106F0400018B1204602F084F999E61E
:104E600000BF97E6E970000810B504460CB90120B0
:104E700010BDA06900B100E000BF94F8410028B95E
:104E8000002084F84000204600F02AF8242084F80E
:104E900041002068C06820F400502168C8602046A6
:104EA00002F0F0F92068006920F490402168086160
:104EB0002068406920F02A00216848612068C068A5
:104EC00040F400502168C86000206064202084F80D
:104ED000410084F842000020606300BFC8E7000082
:104EE00010B586B00446142101A8FBF7B5F95D4959
:104EF0002068884239D100BF002000905A480068DD
:104F000040F40020584908600846006800F400207A
:104F1000009000BF00BF00BF002000905248103832
:104F2000006840F0040050491039086008460068E5
:104F300000F00400009000BF00BF4FF440600190FB
:104F40000220029000200390032004900820059086
:104F500001A94648FDF740FE002201213420FEF75A
:104F600083FE3420FEF76CFE79E0414920688842D8
:104F700038D100BF002000903B48006840F400306A
:104F8000394908600846006800F40030009000BF0E
:104F900000BF00BF0020009033481038006840F088
:104FA00001003149103908600846006800F001002E
:104FB000009000BF00BF0C20019002200290002052
:104FC0000390032004900720059001A92948FDF7CC
:104FD00003FE002201212620FEF746FE2620FEF7D2
:104FE0002FFE3CE024492068884238D100BF0020D1
:104FF00000901D48006840F480201B490860084666
:10500000006800F48020009000BF00BF00BF0020B7
:10501000009015481038006840F008001249103917
:1050200008600846006800F00800009000BF00BF5C
:105030004FF4407001900220029000200390032062
:1050400004900720059001A90C48FDF7C5FD00223A
:1050500001212720FEF708FE2720FEF7F1FD06B00C
:1050600010BD0000004C00404038024000080240E3
:10507000004400400000024000480040000C024094
:1050800070B504460D46164694F8420020280BD110
:1050900005B10EB9012070BD0020206332462946BB
:1050A000204602F005FAF6E70220F4E710B50446C0
:1050B0000748006818B106480068844200D010BD57
:1050C0000448007803F0C6F803F008F900BFF6E7DB
:1050D000A4000020AF0000202DE9F84F04460E4642
:1050E000174699464FF0000A94F84100202850D105
:1050F00006B117B90120BDE8F88F002060642120B7
:1051000084F84100FDF770FE8246A784E784A0681A
:10511000B0F5805F04D1206910B90025B04602E0E7
:1051200035464FF000081EE05346002280212046FD
:10513000CDF8009002F00CFA20B1202084F8410054
:105140000320D8E745B9B8F80000C0F3080021688B
:10515000486008F1020803E02878216848606D1C67
:10516000E08C401EE084E08C0028DDD15346002214
:1051700040212046CDF8009002F0EAF920B120202D
:1051800084F841000320B6E7202084F84100002085
:10519000B1E70220AFE77047014800787047000090
:1051A0009200002000B587B0142102A8FBF754F844
:1051B00000BF002001901448006840F0010012492F
:1051C00008600846006800F00100019000BF00BFC1
:1051D000881502900120039000200490059002A9F8
:1051E0000A48FDF7F9FC00200949087009490870D0
:1051F0000949087009490870094908800949086087
:1052000000F060F807B000BD3038024000000240F6
:1052100090000020910000209200002093000020C8
:10522000940000209800002010B5044601200D498C
:1052300008700D49087000200C49087004EB8400C8
:1052400040000B490880FDF7CFFD0A4908600020A7
:1052500009490880FDF7C8FD08490860002000F0F2
:1052600031F810BD90000020920000209300002033
:1052700094000020980000209C000020A000002046
:1052800010B50020084908700849087008490870DE
:1052900008490880084908600849088008490860EA
:1052A00000F010F810BD00009000002092000020D7
:1052B0009300002094000020980000209C00002013
:1052C000A000002070B505460DB1012400E00024C7
:1052D00022464FF480710348FDF780FD02480570B7
:1052E00070BD0000000002409100002070B513481E
:1052F000007800B970BDFDF777FD044610480068DE
:10530000201AB0F5FA6F01D30D4804600C4800680C
:10531000251A0C4800784FF4FA6110FB01F0642163
:10532000B0FBF1F6B54203D20120FFF7CBFF02E05C
:105330000020FFF7C7FF00BFDCE70000900000205F
:1053400098000020930000202DE9F047074688468A
:1053500091464548007830B9002044490870FFF76D
:10536000B1FFBDE8F087B8F1000F03D040F28A200A
:10537000874205DB00203D490870FFF7A3FFF0E7F7
:105380003B480088C01B04B23A48007801280CD181
:105390001E2C0ADC0220374908700020364908809C
:1053A000FDF722FD354908600BE0324800780228FD
:1053B00007D1322C05DD01202E49087000202E492E
:1053C00008802C480078012806D1782C01DD642063
:1053D00000E01E20054643E0FDF706FD064627488F
:1053E0000068301A41F28831884227D3234806608A
:1053F000022C0BDD2048B0F90000182806DA1E4800
:105400000088401C00B21C49088017E014F1020F0C
:1054100014DA1948B0F9000000280FDD1648B0F979
:105420000000022801DB022002E01348B0F900006E
:1054300011490988081A00B20F4908802546002D35
:1054400000DA0025122D00DD12250B48B0F900000E
:105450000544642D00DD642514F1050F00DC0025F2
:1054600002490D7000BF7CE79000002093000020EF
:1054700094000020920000209C000020A00000204A
:1054800000BFFEE7014608684069C0F38020B0B164
:105490006FF480600A68506100200863202081F862
:1054A0003D00002081F83E00086C40F004000864D4
:1054B00000BF002081F83C0000BF012070470020A1
:1054C000FCE700002DE9F84304460D4690461E46D1
:1054D000E76A2068006840F4806021680860082F4F
:1054E00004D0012F02D017F5803F06D12068006854
:1054F00040F480702168086008E0206B112805D115
:105500002068006840F480702168086043460022EB
:105510004FF001112046009600F023FA60B1206898
:10552000006800F48070B0F5807F02D14FF4007005
:1055300020640320BDE8F8832069B0F5804F05D1D1
:10554000E8B240F001002168086149E005F44070CC
:10555000F02141EAE01021680861334642462649BD
:10556000204600F05DFA08B10120E3E7E8B22168C7
:105570000861334642462049891F204600F050FA10
:1055800008B10120D6E700BF0020009020684069E4
:10559000009020688069009000BF00BF206800680C
:1055A00040F4807021680860434600224FF00111EA
:1055B0002046009600F0D5F958B12068006800F444
:1055C0008070B0F5807F02D14FF40070206403201A
:1055D000B0E705F44070F12141EAE010216808616C
:1055E000334642460449891F204600F019FA08B1A3
:1055F00001209FE700209DE7080001002DE9F84306
:1056000004460D4617469846E66A082E04D0012E39
:1056100002D016F5803F06D12068006840F4807003
:105620002168086008E0206B122805D12068006816
:1056300040F48070216808603B4600224FF0011161
:105640002046CDF8008000F08CF960B12068006839
:1056500000F48070B0F5807F02D14FF400702064B8
:105660000320BDE8F8832069B0F5804F04D105F030
:10567000FE002168086112E005F44070F02141EA63
:10568000E0102168086143463A460B49204600F085
:10569000C7F908B10120E4E7E8B221680861434690
:1056A0003A460549891F204600F0BAF908B10120A1
:1056B000D7E70020D5E70000080001002DE9F843F6
:1056C00004460F4615469946DDE9088620680068BD
:1056D00040F48060216808602068006840F48070B1
:1056E00021680860434600224FF0011120460096D1
:1056F00000F037F960B12068006800F48070B0F500
:10570000807F02D14FF4007020640320BDE8F8834D
:1057100007F0FE0021680861334642463E492046B4
:1057200000F07EF908B10120F0E700BF00200090F2
:1057300020684069009020688069009000BF00BF29
:1057400032464146204600F02DFA50B1206C042824
:1057500005D12068006840F40070216808600120CD
:10576000D4E7B9F1010F03D1E8B22168086117E06D
:10577000C5F307202168086132464146204600F003
:1057800011FA50B1206C042805D12068006840F45B
:105790000070216808600120B8E7E8B2216808615C
:1057A00032464146204600F0FDF950B1206C0428F5
:1057B00005D12068006840F400702168086001206D
:1057C000A4E72068006840F48070216808604346C0
:1057D00000224FF001112046009600F0C2F858B1A7
:1057E0002068006800F48070B0F5807F02D14FF42B
:1057F00000702064032089E7F8B240F001002168BE
:105800000861334642460449204600F009F908B1D0
:1058100001207BE7002079E7020001002DE9F84331
:105820000446884615469946DDE908672068006801
:1058300040F4807021680860334600224FF0011167
:105840002046009700F08DF860B12068006800F4F1
:105850008070B0F5807F02D14FF400702064032087
:10586000BDE8F88308F0FE00216808613B46324637
:105870002149204600F0D4F808B10120F0E700BF2C
:1058800000200090206840690090206880690090A6
:1058900000BF00BF3A463146204600F083F950B1C0
:1058A000206C042805D12068006840F4007021684D
:1058B00008600120D4E7B9F1010F03D1E8B22168F3
:1058C000086117E0C5F30720216808613A463146B0
:1058D000204600F067F950B1206C042805D12068FB
:1058E000006840F40070216808600120B8E7E8B261
:1058F000216808610020B3E70200010070B504468A
:105900000D46164625E02046FFF7BCFD08B10120F4
:1059100070BD681CE8B1FDF767FA801BA84200D88B
:10592000BDB920684069C0F3800090B900202063B1
:10593000202084F83D00002084F83E00206C40F0D8
:105940002000206400BF002084F83C0000BF01203C
:10595000DEE720684069C0F380000028D3D0002033
:10596000D6E72DE9F04104460D4617461E46DDF800
:10597000188038E0701CA8B3FDF736FAA0EB0800D9
:10598000B04200D876BBC5F3074001280AD1206891
:105990004069A9B20840A9B2884201D101200BE0B8
:1059A000002009E020688069A9B20840A9B28842B5
:1059B00001D1012000E00020B84214D10020206372
:1059C000202084F83D00002084F83E00206C40F048
:1059D0002000206400BF002084F83C0000BF0120AC
:1059E000BDE8F081FFE7C5F3074001280AD1206830
:1059F0004069A9B20840A9B2884201D101200BE058
:105A0000002009E020688069A9B20840A9B2884254
:105A100001D1012000E00020B842ABD00020DFE738
:105A20002DE9F04104460D4616461F4658E0206811
:105A30004069C0F38020E8B12068006840F400703D
:105A4000216808606FF4806021684861002020634D
:105A5000202084F83D00002084F83E00206C40F0B7
:105A60000400206400BF002084F83C0000BF012037
:105A7000BDE8F081701C90B3FDF7B6F9C01BB042D1
:105A800000D866BBC5F3074001280AD120684069E9
:105A9000A9B20840A9B2884201D101200BE0002040
:105AA00009E020688069A9B20840A9B2884201D102
:105AB000012000E0002090B900202063202084F81D
:105AC0003D00002084F83E00206C40F0200020645F
:105AD00000BF002084F83C0000BF0120C8E7FFE7BA
